:100000000C9434000C943E000C943E000C943E0082
:100010000C943E000C943E000C943E000C943E0068
:100020000C943E000C943E000C943E000C943E0058
:100030000C943E000C943E000C943E000C943E0048
:100040000C943E000C943E000C943E000C943E0038
:100050000C943E000C943E000C943E000C943E0028
:100060000C943E000C943E0011241FBECFEFD8E04C
:10007000DEBFCDBF0E9440000C9452000C940000E3
:100080008AB1836E8AB9259A90E289B182FF06C04F
:1000900083FD06C095B989B182FDFACF84FFFACFFE
:0800A00015B8F3CFF894FFCF6F
:00000001FF
